:1000000007C1000033C1000031C100002FC1000052
:100010002DC100002BC1000029C1000027C1000034
:1000200025C1000023C1000021C100001FC1000044
:100030001DC100001BC1000019C1000017C1000054
:1000400015C1000013C1000011C100000FC1000064
:100050000DC100000BC1000009C100009CC30000DD
:1000600005C100000BC40000E0C30000FFC0000099
:10007000FDC00000FBC00000F9C00000F7C0000098
:10008000F5C00000F3C00000F1C00000EFC00000A8
:10009000EDC00000EBC00000E9C00000E7C00000B8
:1000A000E5C00000E3C00000E1C00000DFC00000C8
:1000B000DDC00000DBC00000D9C00000D7C00000D8
:1000C000D5C00000D3C00000D1C00000CFC00000E8
:1000D000CDC00000CBC00000C9C00000C7C00000F8
:1000E000C5C000006501680157015B015F019F0108
:1000F0006C01700176017A017E01840188018C0116
:100100009F01920196019A0100002100240027001E
:100110002A002D0030003300010100000401070116
:100120000A0100002200250028002B002E003100CB
:10013000340002010000050108010B010505050559
:10014000070508080808020202020A0A080804044F
:10015000040401010101010101010303030303037D
:100160000303040707070C0C0C0C0C0C0C0C02020C
:10017000020206060606060606060B0B0B0B0B0B09
:100180000B0B010210202008081020401020408096
:10019000020102010804020101020408102040804B
:1001A00080402010080402018004020180402010D9
:1001B0000804020108040201010204081020408022
:1001C000010204081020408000000A0B02090C0DF7
:1001D0000E080703040100000000000000000000FA
:1001E000000000000000000000000000000000000F
:1001F00000000000121110000000000000000000CC
:100200000000000000000000000000000000740476
:1002100011241FBECFEFD1E2DEBFCDBF00E00CBF87
:1002200012E0A0E0B2E0E8E2FCE000E00BBF02C0B8
:1002300007900D92A035B107D9F723E0A0E5B2E011
:1002400001C01D92A430B207E1F711E0C8E0D1E08F
:1002500000E005C021970109802FFE01C3D4C730FB
:10026000D10780E00807B1F784D3DCC4C9CE362FAC
:1002700090E0FC01E853FE4F4491FC01EE57FE4F25
:100280002491FC01E45CFE4F9491992309F46BC026
:10029000442309F454C050E0FA013197E231F105EA
:1002A00008F04DC08827EE58FF4F8F4F9BC48091B8
:1002B00080008F7707C0809180008F7D03C0809180
:1002C0008000877F809380003AC084B58F7702C01A
:1002D00084B58F7D84BD33C08091B0008F7703C01B
:1002E0008091B0008F7D8093B00029C080919000F4
:1002F0008F7707C0809190008F7D03C08091900020
:10030000877F809390001BC08091A0008F7707C0EB
:100310008091A0008F7D03C08091A000877F809393
:10032000A0000DC0809120018F7707C0809120012F
:100330008F7D03C080912001877F80932001E92F6A
:10034000F0E0EE0FFF1FEE5DFE4FA591B4919FB759
:10035000F894311104C08C912095282302C0EC91AF
:100360002E2B2C939FBF08950F931F93FB014FB724
:10037000F894009155021091560220915702309145
:1003800058024FBF4091F6025091F7026091F80277
:100390007091F902452B462B472B41F40093F6024E
:1003A0001093F7022093F8023093F9024091F6027D
:1003B0005091F7026091F8027091F90240175107CD
:1003C0006207730729F0041B150B260B370B03C0BC
:1003D00000E010E0980118161906B4F49093FB029F
:1003E0008093FA024091FC025091FD02141615060A
:1003F0005CF4841795070CF0CA016AE070E0DFD363
:1004000070930303609302031E161F069CF4F0937F
:10041000FD02E093FC028091FA029091FB02181613
:10042000190644F48E179F070CF4FC01F0930303A4
:10043000E09302038091FE029091FF020197D1F4B4
:100440008091FC029091FD02181619060CF03FC035
:10045000092E000CAA0BBB0B80179107A207B3074C
:10046000B0F561E08091000302DF1092FF0210926C
:10047000FE021AC08091FA029091FB02181619062A
:1004800034F5092E000CAA0BBB0B80179107A207AD
:10049000B307E8F460E080910003E9DE81E090E0DA
:1004A0009093FF028093FE022FB7F894809155023B
:1004B00090915602A0915702B09158022FBF80939D
:1004C000F6029093F702A093F802B093F9021F91FD
:1004D0000F9108953FB7F894809151029091520284
:1004E000A0915302B091540226B5A89B05C02F3F9E
:1004F00019F00196A11DB11D3FBFBA2FA92F982F4A
:100500008827820F911DA11DB11DBC01CD0142E0C4
:10051000660F771F881F991F4A95D1F70895CF92CC
:10052000DF92EF92FF920F931F93CF93DF936C01B3
:100530007A018B01C0E0D0E0CE15DF0581F0D80153
:100540006D918D01D601ED91FC910190F081E02D2E
:10055000C6011995892B11F02196EECF7E01C701B6
:10056000DF91CF911F910F91FF90EF90DF90CF908F
:100570000895089580E090E00895FC01538D448D26
:10058000252F30E0842F90E0821B930B541710F03E
:10059000CF96089501970895FC01918D828D98174B
:1005A00061F0828DDF01A80FB11D5D968C91928D57
:1005B0009F5F9F73928F90E008958FEF9FEF089554
:1005C000FC01918D828D981731F0828DE80FF11D1D
:1005D000858D90E008958FEF9FEF0895FC01918D38
:1005E000228D892F90E0805C9F4F821B91098F7331
:1005F0009927089589E592E0F1DF21E0892B09F43C
:1006000020E0822F0895FC01848DDF01A80FB11D29
:10061000A35ABF4F2C91848D90E001968F73992738
:10062000848FA689B7892C93A089B1898C91837016
:1006300080648C93938D848D981306C00288F3890F
:10064000E02D80818F7D80830895EF92FF920F933C
:100650001F93CF93DF93EC0181E0888F9B8D8C8D6E
:10066000981305C0E889F989808185FD25C0F62E9B
:100670000B8D10E00F5F1F4F0F731127E02E8C8D35
:10068000E8120BC00FB607FCFACFE889F989808120
:1006900085FFF5CFCE01B7DFF2CF8B8DFE01E80FDE
:1006A000F11DE35AFF4FF0829FB7F8940B8FEA8950
:1006B000FB89808180620AC09FB7F894EE89FF8928
:1006C0006083E889F98980818370806480839FBF1B
:1006D00081E090E0DF91CF911F910F91FF90EF901B
:1006E0000895CF93DF93EC01888D8823C1F0EA89C8
:1006F000FB89808185FD05C0A889B9898C9186FD1B
:100700000EC00FB607FCF5CF808185FFF2CFA88918
:10071000B9898C9185FFEDCFCE0175DFE8CFDF91F0
:10072000CF91089580E090E0892B19F063DF81116B
:1007300025C080E090E0892B41F080E090E0892B9B
:1007400021F00E94000081111CC080E090E0892B04
:1007500041F080E090E0892B21F00E94000081119F
:1007600013C080E090E0892BA1F080E090E0892B1D
:1007700081F00E94000081110AC008950E940000CB
:10078000D8CF0E940000E1CF0E940000EACF0C9475
:100790000000089543D21F920F920FB60F921124BA
:1007A0002F933F938F939F93AF93BF938091550265
:1007B00090915602A0915702B09158023091500288
:1007C00023E0230F2D3720F40196A11DB11D05C094
:1007D00026E8230F0296A11DB11D2093500280939D
:1007E000550290935602A0935702B09358028091FD
:1007F000510290915202A0915302B091540201967D
:10080000A11DB11D8093510290935202A0935302F7
:10081000B0935402BF91AF919F918F913F912F91CF
:100820000F900FBE0F901F9018951F920F920FB64A
:100830000F9211240BB60F922F933F934F935F9318
:100840006F937F938F939F93AF93BF93EF93FF9398
:1008500089E592E0D8DEFF91EF91BF91AF919F9132
:100860008F917F916F915F914F913F912F910F9059
:100870000BBE0F900FBE0F901F9018951F920F92F6
:100880000FB60F9211240BB60F922F938F939F9355
:10089000EF93FF93E0916902F0916A028081E09109
:1008A0006F02F091700282FD12C0908180917202FD
:1008B0008F5F8F7320917302821751F0E091720263
:1008C000F0E0E75AFD4F958F8093720201C080815E
:1008D000FF91EF919F918F912F910F900BBE0F90F1
:1008E0000FBE0F901F901895E9E5F2E01382128277
:1008F00088EE93E0A0E0B0E084839583A683B7837D
:1009000084E092E09183808385EC90E095878487F2
:1009100084EC90E09787868780EC90E0918B808BC9
:1009200081EC90E0938B828B82EC90E0958B848BB2
:1009300086EC90E0978B868B118E128E138E148E20
:10094000E6EFF2E08DE090E09387828710821182DB
:10095000128213828FEF9FEF958384839783868320
:1009600081E090E09187808784E690E09587848796
:100970000895789484B5826084BD84B5816084BD17
:1009800085B5826085BD85B5816085BD80916E002D
:10099000816080936E00109281008091810082605E
:1009A000809381008091810081608093810080919B
:1009B00080008160809380008091B100846080938A
:1009C000B1008091B00081608093B000809191006F
:1009D000826080939100809191008160809391006A
:1009E000809190008160809390008091A10082604E
:1009F0008093A1008091A10081608093A1008091EB
:100A0000A00081608093A00080912101826080938A
:100A10002101809121018160809321018091200139
:100A200081608093200180917A00846080937A00B5
:100A300080917A00826080937A0080917A00816050
:100A400080937A0080917A00806880937A00109277
:100A5000C100E0916902F0916A0282E08083E09136
:100A60006502F09166021082E0916702F0916802DF
:100A70008FEC808310927102E0916D02F0916E0212
:100A800086E08083E0916B02F0916C02808180614E
:100A90008083E0916B02F0916C028081886080839A
:100AA000E0916B02F0916C02808180688083E0911C
:100AB0006B02F0916C0280818F7D8083EFE8F1E022
:100AC0002491E9E4F1E08491882399F090E0880F83
:100AD000991FFC01E85FFE4FA591B491FC01EE5D0A
:100AE000FE4F859194918FB7F894EC91E22BEC93A3
:100AF0008FBF6CE271E084E690E036DC4AE350E0C0
:100B000062E172E089E592E00ADD42E050E06DE4E6
:100B100072E089E592E003DD8FB7F89440905502CA
:100B20005090560260905702709058028FBF2FB7B6
:100B3000F8948091550290915602A0915702B0917D
:100B400058022FBF84199509A609B709883B9B4015
:100B5000A105B10590F56FEF7FEF8FEF9FEF04DCFC
:100B6000C0900203D09003030D2C000CEE08FF0888
:100B7000B1DC4B015C01C114D104E104F104B9F210
:100B8000A9DCDC01CB0188199909AA09BB09883EB7
:100B90009340A105B10578F381E0C81AD108E108B6
:100BA000F10828EE820E23E0921EA11CB11CC11494
:100BB000D104E104F10421F7DECFB4DD9FCF97FB30
:100BC000072E16F4009406D077FD08D013D007FC4A
:100BD00005D03EF4909581959F4F0895709561954D
:100BE0007F4F0895EE0FFF1F881F8BBF0790F69170
:100BF000E02D1994AA1BBB1B51E107C0AA1FBB1F04
:100C0000A617B70710F0A61BB70B881F991F5A9598
:100C1000A9F780959095BC01CD01089581E090E001
:080C2000F89400C0F894FFCF26
:100C28000000000025038F02BD027103EE02CC0212
:100C3800E00257616974696E672033207365636FDA
:100C48006E647320616E6420626C696E6B696E6796
:100C580020746865204C45442061742074686520C0
:100C680073616D652074696D652E2E2E000D0A0066
:00000001FF
